{
  "contractName": "MedicalRecords",
  "abi": [
    {
      "inputs": [],
      "stateMutability": "nonpayable",
      "type": "constructor"
    },
    {
      "inputs": [
        {
          "internalType": "address",
          "name": "_patientWallet",
          "type": "address"
        },
        {
          "internalType": "string",
          "name": "_name",
          "type": "string"
        }
      ],
      "name": "setPacientName",
      "outputs": [
        {
          "internalType": "string",
          "name": "",
          "type": "string"
        }
      ],
      "stateMutability": "nonpayable",
      "type": "function"
    },
    {
      "inputs": [
        {
          "internalType": "address",
          "name": "_patientWallet",
          "type": "address"
        },
        {
          "internalType": "address",
          "name": "_doctorWallet",
          "type": "address"
        }
      ],
      "name": "addDoctorOnList",
      "outputs": [],
      "stateMutability": "nonpayable",
      "type": "function"
    },
    {
      "inputs": [
        {
          "internalType": "address",
          "name": "_patientWallet",
          "type": "address"
        },
        {
          "internalType": "address",
          "name": "_doctorWallet",
          "type": "address"
        }
      ],
      "name": "getMedicalRecord",
      "outputs": [
        {
          "internalType": "string[]",
          "name": "",
          "type": "string[]"
        }
      ],
      "stateMutability": "view",
      "type": "function"
    },
    {
      "inputs": [
        {
          "internalType": "address",
          "name": "_patientWallet",
          "type": "address"
        },
        {
          "internalType": "address",
          "name": "_doctorWallet",
          "type": "address"
        }
      ],
      "name": "getPacientName",
      "outputs": [
        {
          "internalType": "string",
          "name": "",
          "type": "string"
        }
      ],
      "stateMutability": "view",
      "type": "function"
    },
    {
      "inputs": [
        {
          "internalType": "address",
          "name": "_doctorWallet",
          "type": "address"
        }
      ],
      "name": "getAllAuthorizedPacientsByDoctor",
      "outputs": [
        {
          "internalType": "address[]",
          "name": "",
          "type": "address[]"
        }
      ],
      "stateMutability": "view",
      "type": "function"
    },
    {
      "inputs": [
        {
          "internalType": "address",
          "name": "_patientWallet",
          "type": "address"
        },
        {
          "internalType": "address",
          "name": "_doctorWallet",
          "type": "address"
        },
        {
          "internalType": "string",
          "name": "_medicalRecordJSON",
          "type": "string"
        }
      ],
      "name": "addMedicalRecord",
      "outputs": [],
      "stateMutability": "nonpayable",
      "type": "function"
    }
  ],
  "bytecode": "0x608060405260405180602001604052806040518060400160405280601381526020017f4552524f3a2041434553534f204e454741444f0000000000000000000000000081525081525060029060016200005a9291906200006f565b503480156200006857600080fd5b50620004bd565b828054828255906000526020600020908101928215620000bc579160200282015b82811115620000bb578251829081620000aa9190620003d6565b509160200191906001019062000090565b5b509050620000cb9190620000cf565b5090565b5b80821115620000f35760008181620000e99190620000f7565b50600101620000d0565b5090565b5080546200010590620001c5565b6000825580601f106200011957506200013a565b601f0160209004906000526020600020908101906200013991906200013d565b5b50565b5b80821115620001585760008160009055506001016200013e565b5090565b600081519050919050565b7f4e487b7100000000000000000000000000000000000000000000000000000000600052604160045260246000fd5b7f4e487b7100000000000000000000000000000000000000000000000000000000600052602260045260246000fd5b60006002820490506001821680620001de57607f821691505b602082108103620001f457620001f362000196565b5b50919050565b60008190508160005260206000209050919050565b60006020601f8301049050919050565b600082821b905092915050565b6000600883026200025e7fffffffffffffffffffffffffffffffffffffffffffffffffffffffffffffffff826200021f565b6200026a86836200021f565b95508019841693508086168417925050509392505050565b6000819050919050565b6000819050919050565b6000620002b7620002b1620002ab8462000282565b6200028c565b62000282565b9050919050565b6000819050919050565b620002d38362000296565b620002eb620002e282620002be565b8484546200022c565b825550505050565b600090565b62000302620002f3565b6200030f818484620002c8565b505050565b5b8181101562000337576200032b600082620002f8565b60018101905062000315565b5050565b601f82111562000386576200035081620001fa565b6200035b846200020f565b810160208510156200036b578190505b620003836200037a856200020f565b83018262000314565b50505b505050565b600082821c905092915050565b6000620003ab600019846008026200038b565b1980831691505092915050565b6000620003c6838362000398565b9150826002028217905092915050565b620003e1826200015c565b67ffffffffffffffff811115620003fd57620003fc62000167565b5b620004098254620001c5565b620004168282856200033b565b600060209050601f8311600181146200044e576000841562000439578287015190505b620004458582620003b8565b865550620004b5565b601f1984166200045e86620001fa565b60005b82811015620004885784890151825560018201915060208501945060208101905062000461565b86831015620004a85784890151620004a4601f89168262000398565b8355505b6001600288020188555050505b505050505050565b61114280620004cd6000396000f3fe608060405234801561001057600080fd5b50600436106100625760003560e01c80634d6195cd146100675780637566727b146100975780639fbfa64f146100c7578063e2d93d34146100e3578063eedd4a7714610113578063fec374161461012f575b600080fd5b610081600480360381019061007c9190610a3d565b61015f565b60405161008e9190610b18565b60405180910390f35b6100b160048036038101906100ac9190610b3a565b610222565b6040516100be9190610c25565b60405180910390f35b6100e160048036038101906100dc9190610c47565b6102f2565b005b6100fd60048036038101906100f89190610c47565b610430565b60405161010a9190610d93565b60405180910390f35b61012d60048036038101906101289190610db5565b610634565b005b61014960048036038101906101449190610c47565b6106bd565b6040516101569190610b18565b60405180910390f35b60603373ffffffffffffffffffffffffffffffffffffffff168373ffffffffffffffffffffffffffffffffffffffff16036101e457816000808573ffffffffffffffffffffffffffffffffffffffff1673ffffffffffffffffffffffffffffffffffffffff16815260200190815260200160002060000190816101e2919061103a565b505b6040518060400160405280601381526020017f4552524f3a2041434553534f204e454741444f00000000000000000000000000815250905092915050565b6060600160008373ffffffffffffffffffffffffffffffffffffffff1673ffffffffffffffffffffffffffffffffffffffff1681526020019081526020016000206000018054806020026020016040519081016040528092919081815260200182805480156102e657602002820191906000526020600020905b8160009054906101000a900473ffffffffffffffffffffffffffffffffffffffff1673ffffffffffffffffffffffffffffffffffffffff168152602001906001019080831161029c575b50505050509050919050565b60016000808473ffffffffffffffffffffffffffffffffffffffff1673ffffffffffffffffffffffffffffffffffffffff16815260200190815260200160002060020160008373ffffffffffffffffffffffffffffffffffffffff1673ffffffffffffffffffffffffffffffffffffffff16815260200190815260200160002060006101000a81548160ff021916908315150217905550600160008273ffffffffffffffffffffffffffffffffffffffff1673ffffffffffffffffffffffffffffffffffffffff168152602001908152602001600020600001829080600181540180825580915050600190039060005260206000200160009091909190916101000a81548173ffffffffffffffffffffffffffffffffffffffff021916908373ffffffffffffffffffffffffffffffffffffffff1602179055505050565b606061043c83836107de565b15610559576000808473ffffffffffffffffffffffffffffffffffffffff1673ffffffffffffffffffffffffffffffffffffffff168152602001908152602001600020600101805480602002602001604051908101604052809291908181526020016000905b8282101561054e5783829060005260206000200180546104c190610e53565b80601f01602080910402602001604051908101604052809291908181526020018280546104ed90610e53565b801561053a5780601f1061050f5761010080835404028352916020019161053a565b820191906000526020600020905b81548152906001019060200180831161051d57829003601f168201915b5050505050815260200190600101906104a2565b50505050905061062e565b6002805480602002602001604051908101604052809291908181526020016000905b8282101561062757838290600052602060002001805461059a90610e53565b80601f01602080910402602001604051908101604052809291908181526020018280546105c690610e53565b80156106135780601f106105e857610100808354040283529160200191610613565b820191906000526020600020905b8154815290600101906020018083116105f657829003601f168201915b50505050508152602001906001019061057b565b5050505090505b92915050565b61063e83836107de565b156106b8576000808473ffffffffffffffffffffffffffffffffffffffff1673ffffffffffffffffffffffffffffffffffffffff168152602001908152602001600020600101819080600181540180825580915050600190039060005260206000200160009091909190915090816106b6919061103a565b505b505050565b60606106c983836107de565b1561079f576000808473ffffffffffffffffffffffffffffffffffffffff1673ffffffffffffffffffffffffffffffffffffffff168152602001908152602001600020600001805461071a90610e53565b80601f016020809104026020016040519081016040528092919081815260200182805461074690610e53565b80156107935780601f1061076857610100808354040283529160200191610793565b820191906000526020600020905b81548152906001019060200180831161077657829003601f168201915b505050505090506107d8565b6040518060400160405280601381526020017f4552524f3a2041434553534f204e454741444f0000000000000000000000000081525090505b92915050565b60008060008473ffffffffffffffffffffffffffffffffffffffff1673ffffffffffffffffffffffffffffffffffffffff16815260200190815260200160002060020160008373ffffffffffffffffffffffffffffffffffffffff1673ffffffffffffffffffffffffffffffffffffffff16815260200190815260200160002060009054906101000a900460ff161561087a576001905061087f565b600090505b92915050565b6000604051905090565b600080fd5b600080fd5b600073ffffffffffffffffffffffffffffffffffffffff82169050919050565b60006108c482610899565b9050919050565b6108d4816108b9565b81146108df57600080fd5b50565b6000813590506108f1816108cb565b92915050565b600080fd5b600080fd5b6000601f19601f8301169050919050565b7f4e487b7100000000000000000000000000000000000000000000000000000000600052604160045260246000fd5b61094a82610901565b810181811067ffffffffffffffff8211171561096957610968610912565b5b80604052505050565b600061097c610885565b90506109888282610941565b919050565b600067ffffffffffffffff8211156109a8576109a7610912565b5b6109b182610901565b9050602081019050919050565b82818337600083830152505050565b60006109e06109db8461098d565b610972565b9050828152602081018484840111156109fc576109fb6108fc565b5b610a078482856109be565b509392505050565b600082601f830112610a2457610a236108f7565b5b8135610a348482602086016109cd565b91505092915050565b60008060408385031215610a5457610a5361088f565b5b6000610a62858286016108e2565b925050602083013567ffffffffffffffff811115610a8357610a82610894565b5b610a8f85828601610a0f565b9150509250929050565b600081519050919050565b600082825260208201905092915050565b60005b83811015610ad3578082015181840152602081019050610ab8565b60008484015250505050565b6000610aea82610a99565b610af48185610aa4565b9350610b04818560208601610ab5565b610b0d81610901565b840191505092915050565b60006020820190508181036000830152610b328184610adf565b905092915050565b600060208284031215610b5057610b4f61088f565b5b6000610b5e848285016108e2565b91505092915050565b600081519050919050565b600082825260208201905092915050565b6000819050602082019050919050565b610b9c816108b9565b82525050565b6000610bae8383610b93565b60208301905092915050565b6000602082019050919050565b6000610bd282610b67565b610bdc8185610b72565b9350610be783610b83565b8060005b83811015610c18578151610bff8882610ba2565b9750610c0a83610bba565b925050600181019050610beb565b5085935050505092915050565b60006020820190508181036000830152610c3f8184610bc7565b905092915050565b60008060408385031215610c5e57610c5d61088f565b5b6000610c6c858286016108e2565b9250506020610c7d858286016108e2565b9150509250929050565b600081519050919050565b600082825260208201905092915050565b6000819050602082019050919050565b600082825260208201905092915050565b6000610ccf82610a99565b610cd98185610cb3565b9350610ce9818560208601610ab5565b610cf281610901565b840191505092915050565b6000610d098383610cc4565b905092915050565b6000602082019050919050565b6000610d2982610c87565b610d338185610c92565b935083602082028501610d4585610ca3565b8060005b85811015610d815784840389528151610d628582610cfd565b9450610d6d83610d11565b925060208a01995050600181019050610d49565b50829750879550505050505092915050565b60006020820190508181036000830152610dad8184610d1e565b905092915050565b600080600060608486031215610dce57610dcd61088f565b5b6000610ddc868287016108e2565b9350506020610ded868287016108e2565b925050604084013567ffffffffffffffff811115610e0e57610e0d610894565b5b610e1a86828701610a0f565b9150509250925092565b7f4e487b7100000000000000000000000000000000000000000000000000000000600052602260045260246000fd5b60006002820490506001821680610e6b57607f821691505b602082108103610e7e57610e7d610e24565b5b50919050565b60008190508160005260206000209050919050565b60006020601f8301049050919050565b600082821b905092915050565b600060088302610ee67fffffffffffffffffffffffffffffffffffffffffffffffffffffffffffffffff82610ea9565b610ef08683610ea9565b95508019841693508086168417925050509392505050565b6000819050919050565b6000819050919050565b6000610f37610f32610f2d84610f08565b610f12565b610f08565b9050919050565b6000819050919050565b610f5183610f1c565b610f65610f5d82610f3e565b848454610eb6565b825550505050565b600090565b610f7a610f6d565b610f85818484610f48565b505050565b5b81811015610fa957610f9e600082610f72565b600181019050610f8b565b5050565b601f821115610fee57610fbf81610e84565b610fc884610e99565b81016020851015610fd7578190505b610feb610fe385610e99565b830182610f8a565b50505b505050565b600082821c905092915050565b600061101160001984600802610ff3565b1980831691505092915050565b600061102a8383611000565b9150826002028217905092915050565b61104382610a99565b67ffffffffffffffff81111561105c5761105b610912565b5b6110668254610e53565b611071828285610fad565b600060209050601f8311600181146110a45760008415611092578287015190505b61109c858261101e565b865550611104565b601f1984166110b286610e84565b60005b828110156110da578489015182556001820191506020850194506020810190506110b5565b868310156110f757848901516110f3601f891682611000565b8355505b6001600288020188555050505b50505050505056fea26469706673582212209b51f39f8616b278f1ff3dcdac656b2ed2c6094217a0ace02d371e160dbe4f4564736f6c63430008110033",
  "immutableReferences": {},
  "source": "// SPDX-License-Identifier: GPL-3.0\n\npragma solidity ^0.8.7;\n\nstruct Pacient_t {\n    string name;\n    string[] medicalRecords;\n    mapping (address => bool) authorizedDoctors; \n}\n\nstruct Doctor_t {\n    address[] authorizedPacients;\n}\n\ncontract MedicalRecords {\n    mapping(address => Pacient_t) private pacientMapping;\n    mapping(address => Doctor_t) private doctorMapping;\n    string[] private ERRO = [\"ERRO: ACESSO NEGADO\"];\n    constructor() {\n    }\n    // seta nome do paciente na struct Pacient_t\n    function setPacientName(address _patientWallet, string memory _name) public returns (string memory)\n    {   \n        if(_patientWallet == msg.sender) {\n            pacientMapping[_patientWallet].name = _name;\n        }\n        return \"ERRO: ACESSO NEGADO\";\n    }\n    // Adiciona medico na lista de medicos permitidos\n    function addDoctorOnList(address _patientWallet, address _doctorWallet) public\n    {   \n        pacientMapping[_patientWallet].authorizedDoctors[_doctorWallet] = true;\n        doctorMapping[_doctorWallet].authorizedPacients.push(_patientWallet);\n    }\n    // Retorna o prontuario do paciente\n    function getMedicalRecord(address _patientWallet, address _doctorWallet) public view returns (string[]memory)\n    {   \n        if(verifyIfDoctorIsAllowed(_patientWallet, _doctorWallet)) {\n            return pacientMapping[_patientWallet].medicalRecords;\n        }\n        return ERRO;\n    }\n    // Retorna o nome do paciente na struct Pacient_t\n    function getPacientName(address _patientWallet, address _doctorWallet) public view returns (string memory)\n    {   \n        if(verifyIfDoctorIsAllowed(_patientWallet, _doctorWallet)) {\n            return pacientMapping[_patientWallet].name;\n        }\n        return \"ERRO: ACESSO NEGADO\";\n    }\n    // Retorna todos os pacientes cujo mdico tem acesso\n    function getAllAuthorizedPacientsByDoctor(address _doctorWallet) public view returns (address[] memory)\n    {   \n       // if(_doctorWallet == msg.sender) { //medida de segurana que depois tem que descomentar\n            return doctorMapping[_doctorWallet].authorizedPacients;\n       // }\n    }\n\n    // Adiciona pronturio mdico\n    function addMedicalRecord(address _patientWallet,address _doctorWallet, string memory _medicalRecordJSON) public\n    {   \n        if(verifyIfDoctorIsAllowed(_patientWallet, _doctorWallet)) {\n            pacientMapping[_patientWallet].medicalRecords.push(_medicalRecordJSON);\n        }\n    }\n\n    // Verifica se o medico pode pegar os dados.\n    function verifyIfDoctorIsAllowed(address _patientWallet,address _doctorWallet) private view returns (bool)\n    {   \n        if(pacientMapping[_patientWallet].authorizedDoctors[_doctorWallet]) \n            return true;\n        return false;\n    }\n}\n",
  "sourcePath": "/home/pedro/faculdade/9-per/tcc-2/saude-unificada/contracts/MedicalRecordContract.sol",
  "compiler": {
    "name": "solc",
    "version": "0.8.17+commit.8df45f5f.Emscripten.clang"
  },
  "schemaVersion": "3.4.10",
  "updatedAt": "2022-12-12T23:27:15.251Z",
  "devdoc": {
    "kind": "dev",
    "methods": {},
    "version": 1
  },
  "userdoc": {
    "kind": "user",
    "methods": {},
    "version": 1
  }
}