{
  "contractName": "MedicalRecords",
  "abi": [
    {
      "inputs": [],
      "stateMutability": "nonpayable",
      "type": "constructor"
    },
    {
      "inputs": [
        {
          "internalType": "address",
          "name": "_patientWallet",
          "type": "address"
        },
        {
          "internalType": "address",
          "name": "_doctorWallet",
          "type": "address"
        }
      ],
      "name": "addDoctorOnList",
      "outputs": [],
      "stateMutability": "nonpayable",
      "type": "function"
    },
    {
      "inputs": [
        {
          "internalType": "address",
          "name": "_patientWallet",
          "type": "address"
        },
        {
          "internalType": "address",
          "name": "_doctorWallet",
          "type": "address"
        },
        {
          "internalType": "uint256",
          "name": "_hospitalId",
          "type": "uint256"
        }
      ],
      "name": "getMedicalRecord",
      "outputs": [
        {
          "internalType": "string",
          "name": "",
          "type": "string"
        }
      ],
      "stateMutability": "view",
      "type": "function",
      "constant": true
    },
    {
      "inputs": [
        {
          "internalType": "address",
          "name": "_patientWallet",
          "type": "address"
        },
        {
          "internalType": "address",
          "name": "_doctorWallet",
          "type": "address"
        },
        {
          "internalType": "uint256",
          "name": "_hospitalId",
          "type": "uint256"
        },
        {
          "internalType": "string",
          "name": "_medicalRecordlink",
          "type": "string"
        }
      ],
      "name": "addLinkInTheMedicalRecord",
      "outputs": [],
      "stateMutability": "nonpayable",
      "type": "function"
    }
  ],
  "bytecode": "0x608060405234801561001057600080fd5b50610a6d806100206000396000f3fe608060405234801561001057600080fd5b50600436106100415760003560e01c8063562a134a146100465780639fbfa64f14610062578063fdac6a261461007e575b600080fd5b610060600480360381019061005b919061056a565b6100ae565b005b61007c600480360381019061007791906105ed565b610124565b005b6100986004803603810190610093919061062d565b6101bf565b6040516100a591906106ff565b60405180910390f35b6100b884846102d5565b1561011e57806000808673ffffffffffffffffffffffffffffffffffffffff1673ffffffffffffffffffffffffffffffffffffffff1681526020019081526020016000206000016000848152602001908152602001600020908161011c919061092d565b505b50505050565b60016000808473ffffffffffffffffffffffffffffffffffffffff1673ffffffffffffffffffffffffffffffffffffffff16815260200190815260200160002060010160008373ffffffffffffffffffffffffffffffffffffffff1673ffffffffffffffffffffffffffffffffffffffff16815260200190815260200160002060006101000a81548160ff0219169083151502179055505050565b60606101cb84846102d5565b156102b2576000808573ffffffffffffffffffffffffffffffffffffffff1673ffffffffffffffffffffffffffffffffffffffff1681526020019081526020016000206000016000838152602001908152602001600020805461022d90610750565b80601f016020809104026020016040519081016040528092919081815260200182805461025990610750565b80156102a65780601f1061027b576101008083540402835291602001916102a6565b820191906000526020600020905b81548152906001019060200180831161028957829003601f168201915b505050505090506102ce565b604051806060016040528060388152602001610a006038913990505b9392505050565b60008060008473ffffffffffffffffffffffffffffffffffffffff1673ffffffffffffffffffffffffffffffffffffffff16815260200190815260200160002060010160008373ffffffffffffffffffffffffffffffffffffffff1673ffffffffffffffffffffffffffffffffffffffff16815260200190815260200160002060009054906101000a900460ff16156103715760019050610376565b600090505b92915050565b6000604051905090565b600080fd5b600080fd5b600073ffffffffffffffffffffffffffffffffffffffff82169050919050565b60006103bb82610390565b9050919050565b6103cb816103b0565b81146103d657600080fd5b50565b6000813590506103e8816103c2565b92915050565b6000819050919050565b610401816103ee565b811461040c57600080fd5b50565b60008135905061041e816103f8565b92915050565b600080fd5b600080fd5b6000601f19601f8301169050919050565b7f4e487b7100000000000000000000000000000000000000000000000000000000600052604160045260246000fd5b6104778261042e565b810181811067ffffffffffffffff821117156104965761049561043f565b5b80604052505050565b60006104a961037c565b90506104b5828261046e565b919050565b600067ffffffffffffffff8211156104d5576104d461043f565b5b6104de8261042e565b9050602081019050919050565b82818337600083830152505050565b600061050d610508846104ba565b61049f565b90508281526020810184848401111561052957610528610429565b5b6105348482856104eb565b509392505050565b600082601f83011261055157610550610424565b5b81356105618482602086016104fa565b91505092915050565b6000806000806080858703121561058457610583610386565b5b6000610592878288016103d9565b94505060206105a3878288016103d9565b93505060406105b48782880161040f565b925050606085013567ffffffffffffffff8111156105d5576105d461038b565b5b6105e18782880161053c565b91505092959194509250565b6000806040838503121561060457610603610386565b5b6000610612858286016103d9565b9250506020610623858286016103d9565b9150509250929050565b60008060006060848603121561064657610645610386565b5b6000610654868287016103d9565b9350506020610665868287016103d9565b92505060406106768682870161040f565b9150509250925092565b600081519050919050565b600082825260208201905092915050565b60005b838110156106ba57808201518184015260208101905061069f565b60008484015250505050565b60006106d182610680565b6106db818561068b565b93506106eb81856020860161069c565b6106f48161042e565b840191505092915050565b6000602082019050818103600083015261071981846106c6565b905092915050565b7f4e487b7100000000000000000000000000000000000000000000000000000000600052602260045260246000fd5b6000600282049050600182168061076857607f821691505b60208210810361077b5761077a610721565b5b50919050565b60008190508160005260206000209050919050565b60006020601f8301049050919050565b600082821b905092915050565b6000600883026107e37fffffffffffffffffffffffffffffffffffffffffffffffffffffffffffffffff826107a6565b6107ed86836107a6565b95508019841693508086168417925050509392505050565b6000819050919050565b600061082a610825610820846103ee565b610805565b6103ee565b9050919050565b6000819050919050565b6108448361080f565b61085861085082610831565b8484546107b3565b825550505050565b600090565b61086d610860565b61087881848461083b565b505050565b5b8181101561089c57610891600082610865565b60018101905061087e565b5050565b601f8211156108e1576108b281610781565b6108bb84610796565b810160208510156108ca578190505b6108de6108d685610796565b83018261087d565b50505b505050565b600082821c905092915050565b6000610904600019846008026108e6565b1980831691505092915050565b600061091d83836108f3565b9150826002028217905092915050565b61093682610680565b67ffffffffffffffff81111561094f5761094e61043f565b5b6109598254610750565b6109648282856108a0565b600060209050601f8311600181146109975760008415610985578287015190505b61098f8582610911565b8655506109f7565b601f1984166109a586610781565b60005b828110156109cd578489015182556001820191506020850194506020810190506109a8565b868310156109ea57848901516109e6601f8916826108f3565b8355505b6001600288020188555050505b50505050505056fe4552524f3a204d656469636f206e616f206175746f72697a61646f20612061636573736172206461646f7320646f2070616369656e74652ea2646970667358221220cc6ceff4b50bab93ee915f0764acdaaa6bb2652cc97b62c3914b9e7115b5ae2864736f6c63430008110033",
  "immutableReferences": {},
  "source": "// SPDX-License-Identifier: GPL-3.0\n\npragma solidity ^0.8.7;\n\nstruct medicalRecords_t {\n    mapping (uint => string) hospitalMedicalRecordLinks;//mapeia o id do hospital para um link de um pronturio.\n    mapping (address => bool) authorizedDoctors; \n}\n\ncontract MedicalRecords {\n    mapping(address => medicalRecords_t) private medicalRecordsMapping;\n\n    constructor() {\n    }\n    // Adiciona medico na lista de medicos permitidos\n    function addDoctorOnList(address _patientWallet, address _doctorWallet) public\n    {   \n        medicalRecordsMapping[_patientWallet].authorizedDoctors[_doctorWallet] = true;\n    }\n\n    // Retornar o prontuario do paciente\n    function getMedicalRecord(address _patientWallet, address _doctorWallet, uint _hospitalId) public view returns (string memory)\n    {   \n        if(verifyIfDoctorIsAllowed(_patientWallet, _doctorWallet)) {\n            return medicalRecordsMapping[_patientWallet].hospitalMedicalRecordLinks[_hospitalId];\n        }\n        return \"ERRO: Medico nao autorizado a acessar dados do paciente.\";\n    }\n\n    // Caso seja a primeira vez do paciente no hospital, temos que colocar o \n    // link que referencia os prontuarios desse usuario no novo local.\n\n    //ATENCAO: os prontuarios so devem ser atualizados caso o usuario ainda \n    //nao possua uma referencia (link) ao hospital que ele esta sendo consultado.\n\n    // A permissao para adicionar infos esta atreladas a hospitais e nao medicos\n    function addLinkInTheMedicalRecord(address _patientWallet,address _doctorWallet, uint _hospitalId, string memory _medicalRecordlink) public\n    {   \n        if(verifyIfDoctorIsAllowed(_patientWallet, _doctorWallet)) {\n            medicalRecordsMapping[_patientWallet].hospitalMedicalRecordLinks[_hospitalId] = _medicalRecordlink;\n        }\n    }\n\n    // Verifica se o medico pode pegar os dados.\n    function verifyIfDoctorIsAllowed(address _patientWallet,address _doctorWallet) private view returns (bool)\n    {   \n        if(medicalRecordsMapping[_patientWallet].authorizedDoctors[_doctorWallet]) \n            return true;\n        return false;\n    }\n}\n",
  "sourcePath": "/home/pedro/faculdade/9-per/tcc-2/saude-unificada/contracts/MedicalRecordContract.sol",
  "compiler": {
    "name": "solc",
    "version": "0.8.17+commit.8df45f5f.Emscripten.clang"
  },
  "schemaVersion": "3.4.10",
  "updatedAt": "2022-11-13T21:26:30.436Z",
  "networkType": "ethereum",
  "devdoc": {
    "kind": "dev",
    "methods": {},
    "version": 1
  },
  "userdoc": {
    "kind": "user",
    "methods": {},
    "version": 1
  }
}